:1000000000300020890A00002D0D00002D0D000099
:100010002D0D00002D0D00002D0D00002D0D0000F8
:100020002D0D00002D0D00002D0D00002D0D0000E8
:100030002D0D00002D0D00002D0D000025090000E4
:100040002D0D00002D0D00002D0D00002D0D0000C8
:100050002D0D00002D0D00002D0D00002D0D0000B8
:100060002D0D00002D0D00002D0D00002D0D0000A8
:100070002D0D00002D0D00002D0D00002D0D000098
:100080002D0D00002D0D00002D0D00002D0D000088
:100090002D0D00002D0D00002D0D00002D0D000078
:1000A0002D0D00002D0D00002D0D00002D0D000068
:1000B0002D0D00002D0D00002D0D00002D0D000058
:10080000002934D00123002210B488422CD30124C3
:100810002407A14204D2814202D209011B01F8E758
:10082000E400A14204D2814202D249005B00F8E711
:10083000884201D3401A1A434C08A04202D3001B3D
:100840005C0822438C08A04202D3001B9C08224370
:10085000CC08A04202D3001BDC082243002803D0AE
:100860001B0901D00909E3E7101C10BC70470028E0
:1008700001D00020C04307B4024802A140180290F2
:1008800003BDC046190000000029F0D003B5FFF7F2
:10089000B9FF0EBC4243891A1847C0467047C0468C
:1008A000002B15D1002A13D1002900D1002807D030
:1008B00003DB0020C043410802E08021090600203C
:1008C00007B4024801A14018029003BDD1FFFFFF09
:1008D00003B4684601B5029800F04AFF019B9E46AA
:1008E00002B00CBC7047C0461C2101231B04984277
:1008F00001D3000C10391B0A984201D3000A0839B1
:100900001B09984201D30009043902A2105C401867
:100910007047C0460403020201010101000000000B
:100920000000000080B500AF034B1B685A1C024B4F
:100930001A60BD4680BDC0461004002000000000C3
:10094000B0B584B000AF7860396018491648B86017
:10095000F96039680A1CC9170B1CB868F96800F0FF
:10096000E1FE021C0B1CBA60FB60B868F9680F4B13
:100970000D4A00F0D7FE021C0B1CBA60FB607B68BE
:100980001C1CDB171D1CB868F968221C2B1CFFF708
:1009900087FF031C0C1CBB60FC60BB68181CBD46B9
:1009A00004B0B0BDC046C046E8030000000000002F
:1009B00080B584B000AF72B62F4A304B101C191CA2
:1009C000FFF7BEFF031CBB6001201221012200F0D3
:1009D000FDF901201221012200F03CFA0120122130
:1009E000012200F0A7F900F067FD00F0E7FB00F03E
:1009F0009DFB234B00221A6000F0B6FB62B6012378
:100A00005B42FB601E4B1B687B601D4B1A687B685A
:100A1000D31A1A4A5A43BB68101C191CFFF7F0FE80
:100A2000031C3B603A68FB689A4201D1C046ECE780
:100A30003A68124B9A4204DDC04600F0A1FB72B640
:100A400019E001201221002200F004FA3B685B004B
:100A50001A1C0C4B101C02211A1C00F001FE094B41
:100A6000181C00F035FC01201221012200F0F2F9DF
:100A70003B68FB60C9E7FEE712750000A51900009E
:100A8000100400201404002080B500AF084A882319
:100A90005B010021D15000F00DF800F035F800F0B6
:100AA0004FF800F083F800F06FF8FFF781FFFEE7E2
:100AB0000070044080B582B000AF0E4A0E4B9A42DF
:100AC00011D000237B600AE00B4A7B68D3181A78A8
:100AD00008497B68CB181A707B6801337B607A68A1
:100AE000064B9A42F0D9064A0249064BD150BD4600
:100AF00002B080BD00F0FF1F000000000F040000E6
:100B000000E000E0080D000080B584B000AF0A4BA3
:100B1000BB600A4B7B607A68BB68D31AFB6002E05B
:100B2000BB6800221A70FB685A1EFA60002BF7D1CE
:100B3000BD4604B080BDC04610040020140800204B
:100B400080B584B000AF0D4BFB600D4B3B600D4B8F
:100B5000BB603A68FB68D31A7B6007E0FB685A1CED
:100B6000FA60BA68511CB96012781A707B685A1E14
:100B70007A60002BF2D1BD4604B080BD1004002085
:100B800010040020201B000080B500AF054A054975
:100B9000054BCB58F82189011943034BD150BD4671
:100BA00080BDC046007004403810000080B582B09F
:100BB00000AF00237B60FB1C00221A70544B1422F0
:100BC0005A70534B98221A7000237B600AE0504BF6
:100BD0009B79DBB21A1C0223134000D006E07B682D
:100BE00001337B607A684B4B9A42F0D900237B60DB
:100BF0000AE0474B9B79DBB21A1C1023134000D14B
:100C000006E07B6801337B607A68434B9A42F0D9F7
:100C100000237B600CE03E4B9B79DBB21A1C0C235B
:100C200013409B08022B00D106E07B6801337B60F8
:100C30007A68394B9A42EED9354B354A5279D2B25D
:100C400020210A43D2B25A71314B314A1279D2B2C1
:100C500001210A43D2B21A712D4AFB1C52791A7033
:100C6000FB1CFA1C12781F218A431A70FB1CFA1C09
:100C7000127840210A431A70254BFA1C12785A71D7
:100C800000237B600AE0224B9B79DBB21A1C2023F5
:100C9000134000D006E07B6801337B607A681E4B0E
:100CA0009A42F0D900237B600AE0194B9B79DBB2B2
:100CB0001A1C4023134000D006E07B6801337B60A0
:100CC0007A68164B9A42F0D9154A164B1649D150FC
:100CD0000F4B0F4A1278D1B23F220A40D2B21A709B
:100CE00000237B600CE00A4B9B79DBB21A1C0C23BF
:100CF00013409B08032B00D106E07B6801337B6027
:100D00007A68054B9A42EED9BD4602B080BDC04616
:100D1000004006401F4E0000CF0700009F0F00005C
:100D200000700440441000000000011080B500AFC6
:100D3000BD4680BD90B583B000AFFB1D1870BB1DD4
:100D400019707B1D1A70FB1D1B78042B07D8BB1D67
:100D50001B781F2B03D87B1D1B78072B00D92DE098
:100D6000FB1D1A78174B9200D358BA1D1278F91D43
:100D70000878144980004158B81D00788000405818
:100D8000114901409200D150FB1D1A780D4B920081
:100D9000D358BA1D1278F91D08780A4980004158C5
:100DA000B81D007880004058791D09780C02E021B8
:100DB000C900214001439200D150C046BD4603B056
:100DC00090BDC046EC1A0000FFF8FFFF90B583B05D
:100DD00000AFFB1D1870BB1D19707B1D1A70FB1D29
:100DE0001B78042B03D8BB1D1B781F2B00D92BE0CD
:100DF0007B1D1B78002B14D1FB1D1A78144B92001D
:100E0000D358FA1D1178124A89008A585269B91DBF
:100E100009780120041C8C40211CC9430A405A61F6
:100E200012E0FB1D1A780A4B9200D358FA1D117874
:100E3000074A89008A585169BA1D12780120041C9A
:100E40009440221C0A435A61BD4603B090BDC0467F
:100E5000001B000080B582B000AFFB1D1870BB1DE9
:100E600019707B1D1A70FB1D1B78042B03D8BB1D4A
:100E70001B781F2B00D91CE07B1D1B78002B0CD18D
:100E8000FB1D1A780C4B9200D358BA1D1278012121
:100E9000081C9040021C9A600BE0FB1D1A78064B60
:100EA0009200D358BA1D12780121081C9040021CF0
:100EB0005A60BD4602B080BD001B000080B500AF87
:100EC000394A3949394BCB588021C9031943374B2B
:100ED000D15000200E210222FFF72CFF00200F210D
:100EE0000222FFF727FF002010210222FFF722FF36
:100EF000002011210222FFF71DFF2D4B2C4A1278F2
:100F0000D2B210210A43D2B21A70294B284A127861
:100F1000D2B208210A43D2B21A70254B244A127861
:100F2000D2B204210A43D2B21A70214B204A12785D
:100F3000D2B201218A43D2B21A701D4B1C4A1278D8
:100F4000D2B202210A43D2B21A70194B184A52780F
:100F5000D2B210210A43D2B25A70154B144A927879
:100F6000D2B270218A43D2B29A70114B104A927851
:100F7000D2B230210A43D2B29A700D4B0C4A927809
:100F8000D2B20F218A43D2B29A70094B084A9278A2
:100F9000D2B29A70064B064A1278D2B240210A4366
:100FA000D2B21A70BD4680BD0070044034100000FB
:100FB0000060074080B582B000AF021CFB1D1A70B4
:100FC000C046074BDB78DBB21A1C20231340F8D055
:100FD000034BFA1D12785A71C046BD4602B080BD5F
:100FE0000060074080B500AF3B4A3B493B4BCB58C4
:100FF000802109041943394BD15001200A210222D2
:10100000FFF798FE01200B210222FFF793FE01203B
:1010100010210222FFF78EFE012011210222FFF78C
:1010200089FE2F4B2E4A1278D2B210210A43D2B237
:101030001A702B4B2A4A1278D2B208218A43D2B2B4
:101040001A70274B264A1278D2B204218A43D2B2B0
:101050001A70234B224A1278D2B201218A43D2B2AB
:101060001A701F4B1E4A1278D2B202210A43D2B222
:101070001A701B4B1A4A5278D2B210210A43D2B2CC
:101080005A70174B164A9278D2B270218A43D2B264
:101090009A70134B124A9278D2B220210A43D2B2EC
:1010A0009A700F4B0E4A9278D2B20F218A43D2B275
:1010B0009A700B4B0A4A9278D2B204210A43D2B2F8
:1010C0009A70074B064A1278D2B240210A43D2B234
:1010D0001A70BD4680BDC046007004403410000048
:1010E0000070074080B582B000AF021CFB1D1A7073
:1010F000C0460D4BDB78DBB21A1C20231340F8D01E
:10110000094BFA1D12785A71C046074BDB78DBB2E7
:10111000DBB25BB2002BF8DA034B5B79DBB2181C55
:10112000BD4602B080BDC0460070074080B500AF2C
:101130000B4B00221A600A4B00229A60084B084AA7
:10114000126804210A431A60054B064A5A60044B90
:10115000034A126802210A431A60BD4680BDC04698
:1011600010E000E080BB000080B500AF034B034AF5
:10117000126801210A431A60BD4680BD10E000E0FC
:1011800080B500AF034B034A126801218A431A60FD
:10119000BD4680BD10E000E080B582B000AF002306
:1011A0007B6003E0C0467B6801337B607A689023F4
:1011B000FF339A42F6D9BD4602B080BD80B582B0F9
:1011C00000AFFFF77BFE00200D210122FFF7B2FDEB
:1011D00000200D210122FFF7F9FD00200D21012241
:1011E000FFF738FE00200C210122FFF7A3FD0020AD
:1011F0000C210122FFF7EAFD00200D210122FFF75B
:1012000029FEFFF7C9FF00200D210022FFF722FE73
:10121000FFF7C2FF00200D210122FFF71BFEFFF7A1
:10122000BBFF0D4B7B6000200C210022FFF712FE5C
:10123000FFF7B2FF06E07B685A1C7A601B78181C27
:10124000FFF7B8FE7B681B78FF2BF4D100F006F89F
:10125000BD4602B080BDC046141B000080B582B000
:1012600000AF00237B602DE0FFF796FF00200C21EC
:101270000022FFF7EFFDFFF78FFF7B68DBB2503BEB
:10128000DBB2181CFFF796FE1020FFF793FE00203C
:10129000FFF790FEFFF780FF00200C210122FFF7EF
:1012A000D9FDFFF779FF00233B6005E00020FFF741
:1012B00081FE3B6801333B603B687F2BF6D97B683E
:1012C00001337B607B68072BCED9BD4602B080BD61
:1012D00080B584B000AF78600023FB6033E0FFF797
:1012E0005BFF00200C210022FFF7B4FDFFF754FF45
:1012F000FB68DBB2503BDBB2181CFFF75BFE102033
:10130000FFF758FE0020FFF755FEFFF745FF0020CE
:101310000C210122FFF79EFDFFF73EFF0023BB607B
:1013200009E07B685A1C7A601B78181CFFF742FEA4
:10133000BB680133BB60BB687F2BF2D9FFF72CFF82
:10134000FB680133FB60FB68072BC8D9BD4604B0BE
:1013500080BDC04680B584B000AF78600023FB60DC
:1013600003E0C046FB680133FB60FA687B689A4281
:10137000F7D3BD4604B080BD80B500AF01200A217F
:101380000022FFF767FDBD4680BDC04680B500AFB7
:1013900001200A210122FFF75DFDBD4680BDC04648
:1013A00090B587B000AFB9607B603B1C0F33011C68
:1013B00019703B1C0E331A7000237B610EE07B69B1
:1013C000DB00BA68111CD9400B1CDAB2391C103191
:1013D0007B69CB181A707B6901337B617B69032BB6
:1013E000EDDD3B1C0F331A783F231340DBB2402264
:1013F0001343DBB2181CFFF775FE00237B610BE083
:101400007B690322D31A3A1C1032D35C181CFFF7F5
:1014100069FE7B6901337B617B69032BF0DD3B1C3B
:101420000E331B785B00DBB201221343DBB2DBB26D
:10143000181CFFF757FE3B1C0F331B780C2B16D1E3
:10144000FF20FFF74FFEC046FF20FFF74BFE031CB7
:101450001A1CBB6A1A70BB6A1B78FF2BF4D0C046FB
:10146000FF20FFF73FFE031CFF2BF9D120E07B6834
:10147000002B1DD0C046FF20FFF734FE031C1A1CB2
:10148000BB6A1A70BB6A1B78FF2BF4D001237B6107
:101490000AE07B69BA6AD418FF20FFF723FE031C19
:1014A00023707B6901337B617A697B689A42F0DB48
:1014B000BD4607B090BDC04680B586B002AFFFF70D
:1014C00091FD654B644A5278D2B210218A43D2B260
:1014D0005A7001200A210122FFF778FC01200A211D
:1014E0000122FFF727FC01200A210122FFF7B2FCAD
:1014F0005A4B181CFFF72EFF574B574A9278D2B21F
:1015000070218A43D2B29A70534B534A9278D2B226
:1015100020210A43D2B29A704F4B4F4A9278D2B2EE
:101520000F218A43D2B29A704B4B4B4A9278D2B277
:1015300005210A43D2B29A7001200A210122FFF745
:1015400089FC0023FB6005E0FF20FFF7CBFDFB6873
:101550000133FB60FB68092BF6DDFFF70DFF3B1C39
:101560000093002000214A220123FFF719FFFFF713
:101570000DFFFFF701FFD5235B003A1C0092082006
:10158000191C43220923FFF70BFFFFF7FFFEFFF7AC
:10159000F3FE3B1C00933720002132220123FFF78A
:1015A000FFFEFFF7F3FEFFF7E7FE8023DB053A1CA3
:1015B00000922920191C62220123FFF7F1FEFFF798
:1015C000E5FE3B1C1B78002B00D100E0DFE7FFF7B6
:1015D000D3FE3B1C00933A2000217E220923FFF713
:1015E000DFFEFFF7D3FEFFF7C7FE3B1C00933A2058
:1015F00000217E220923FFF7D3FEFFF7C7FEFFF786
:10160000BBFE3B1C00933B20002101220123FFF77E
:10161000C7FEFFF7BBFE104B0F4A9278D2B2702183
:101620008A43D2B29A700C4B0B4A9278D2B22021E4
:101630000A43D2B29A70084B074A9278D2B20F216D
:101640008A43D2B29A70044B034A9278D2B29A700B
:10165000BD4604B080BDC046007007407017000052
:1016600090B5A9B002AFF860B9607A60FFF784FE68
:10167000FB683A1C103200921220191CFF22012331
:10168000FFF78EFE00239022D219136034E0C0468B
:10169000FF20FFF727FD031C1A1C3B1C10331A7098
:1016A0003B1C10331B78FF2BF2D000239422D2195D
:1016B00013600EE07C68631C7B60FF20FFF712FD67
:1016C000031C23709422D219136801339422D21977
:1016D00013609423DB191A68114B9A42EADDFF204C
:1016E000FFF700FDFF20FFF7FDFC9022D2191368E1
:1016F00001339022D21913609023DB191A68BB685A
:101700009A42C4DB3B1C103300930C200021FF22C3
:101710000123FFF745FEFFF739FEBD4627B090BD18
:10172000FF010000F7B500920193009E6A461388FE
:1017300084B2320C050C261C5E4354436B43554364
:101740001C19320CA4189C4202D280225202AD18FD
:10175000270CB6B22404A219141C019E009A7043EF
:101760004A43EB198218D518201C291C03B0F0BD80
:10177000F7B5161C1F1C0090019100F013F8041C13
:101780000D1C221C2B1C301C391CFFF7CBFF009AB0
:10179000019B121A8B410899201C0A604B60291C7E
:1017A00003B0F0BDF0B5002489B0161C1F1C0594D1
:1017B000A14207DA041C0D1C00216042A94101244A
:1017C00064420594002B05DA059D002756429F418F
:1017D000ED430595351C009702900C1C002F00D09E
:1017E000EBE08E424BD9301CFFF77EF8002809D081
:1017F0000299029A20231B1A8440D94082408540D6
:101800000C4302922B0CA8B2191C0090201C0193CF
:10181000FEF7F6FF009E071C46430199201CFFF7C8
:1018200033F8029C0904230C19433C1CB14207D233
:101830004919013CA94203D3B14201D2BC1E491946
:101840008E1B301C0199FEF7DBFF071C00980199E5
:1018500078430090301CFFF717F8029A009893B273
:10186000090419433B1C814206D24919013BA94294
:1018700002D3814200D2BB1E24041C4326E1002E69
:1018800004D10120311CFEF7BBFF051C281CFFF70B
:101890002BF8002802D1641B01274DE00299202378
:1018A0001B1A261CD940DE4084400B1C2343029C9B
:1018B000854084402F0C0294301CACB2391C039339
:1018C0000494FEF79DFF049C01904443391C301C96
:1018D000FEF7DAFF03980904030C1943019EA142A5
:1018E00008D24919013EA94204D3A14202D2019E65
:1018F0004919023E0C1B201C391CFEF781FF04997C
:1019000000904143201C0191391CFEF7BDFF039A52
:10191000019893B20C041C43009B844208D26419C2
:10192000013BAC4204D3844202D2009B6419023BC7
:1019300001993704641A1F432A0CABB2111C201CF6
:1019400004930192FEF75CFF049E039046430199C5
:10195000201CFEF799FF02980C040399030C1C430A
:101960000091B4420AD2013964190091AC4205D306
:10197000B44203D2039A6419023A0092A41B201CB9
:1019800001990394FEF73CFF049E041C4643019911
:101990000398FEF779FF0298090483B21943231CC8
:1019A000B14206D24919013BA94202D3B14200D249
:1019B000A31E009D2C041C438CE00098884200D993
:1019C00086E0381CFEF790FF00990190002809D1AD
:1019D0008C4202D9002701247CE0029CB442F9D257
:1019E000019F76E00198202385401B1A321C039545
:1019F000029DDA40171C8140261CDD40DE400F436B
:101A000084402B1C23433C0CBDB2301C211C04938E
:101A10000695FEF7F5FE051C0698211C684300900C
:101A2000301CFEF731FF049A0904130C1943009B84
:101A30002E1C994207D2C919013EB94203D39942DB
:101A400001D2AE1EC919009D491B0791081C211C1B
:101A5000FEF7D6FE069D0090211C45430798FEF731
:101A600013FF0498090484B22143009BA94208D2C1
:101A7000C919013BB94204D3A94202D2009BC9193A
:101A8000023B4D1B039934041C4388B2260C0A0CFC
:101A9000A3B2011C5943704353437243C3180E0C45
:101AA0009B19834202D2802040021218180C12188F
:101AB000AA420AD80027AA420CD11B0489B2029A72
:101AC000019D5B18AA40934204D9013C002701E024
:101AD00000273C1C201C059C391C002C04D0021C37
:101AE0003B1C00215042994109B0F0BD00900440D8
:101AF00000A0044000B0044000C0044000D00440F6
:101B000000F00F4040F00F4080F00F40C0F00F4059
:101B100000F10F40AF40A0A6A4A2C82F248124FF4B
:081B200084FCFF7F01000000BE
:101B2800281B00001004002000000000281B0000F3
:101B380010F4FF1F0000000000000000000000007B
:041B48000000000099
:0400000300000A8966
:00000001FF
